{
  "contractName": "Escrow",
  "abi": [
    {
      "inputs": [],
      "stateMutability": "nonpayable",
      "type": "constructor"
    },
    {
      "inputs": [
        {
          "internalType": "uint256",
          "name": "",
          "type": "uint256"
        }
      ],
      "name": "escrowed_txn",
      "outputs": [
        {
          "internalType": "address payable",
          "name": "creator",
          "type": "address"
        },
        {
          "internalType": "address",
          "name": "authorisor",
          "type": "address"
        },
        {
          "internalType": "address payable",
          "name": "recipient",
          "type": "address"
        },
        {
          "internalType": "uint256",
          "name": "amount",
          "type": "uint256"
        }
      ],
      "stateMutability": "view",
      "type": "function",
      "constant": true
    },
    {
      "inputs": [],
      "name": "txnId",
      "outputs": [
        {
          "internalType": "uint256",
          "name": "",
          "type": "uint256"
        }
      ],
      "stateMutability": "view",
      "type": "function",
      "constant": true
    },
    {
      "inputs": [
        {
          "internalType": "address",
          "name": "manager",
          "type": "address"
        },
        {
          "internalType": "address payable",
          "name": "recipient",
          "type": "address"
        }
      ],
      "name": "createTransaction",
      "outputs": [],
      "stateMutability": "payable",
      "type": "function",
      "payable": true
    },
    {
      "inputs": [
        {
          "internalType": "uint256",
          "name": "_txnId",
          "type": "uint256"
        },
        {
          "internalType": "bool",
          "name": "isValid",
          "type": "bool"
        }
      ],
      "name": "executeTransaction",
      "outputs": [],
      "stateMutability": "nonpayable",
      "type": "function"
    }
  ],
  "bytecode": "0x608060405234801561001057600080fd5b50336000806101000a81548173ffffffffffffffffffffffffffffffffffffffff021916908373ffffffffffffffffffffffffffffffffffffffff1602179055506108dc806100606000396000f3fe60806040526004361061003f5760003560e01c8063662a2c2514610044578063b286b4f314610060578063e77924e01461008b578063f0f9e5ee146100b4575b600080fd5b61005e60048036038101906100599190610687565b6100f4565b005b34801561006c57600080fd5b506100756103ac565b60405161008291906106e0565b60405180910390f35b34801561009757600080fd5b506100b260048036038101906100ad919061075f565b6103b2565b005b3480156100c057600080fd5b506100db60048036038101906100d6919061079f565b610556565b6040516100eb94939291906107ea565b60405180910390f35b60405180608001604052803373ffffffffffffffffffffffffffffffffffffffff1681526020018373ffffffffffffffffffffffffffffffffffffffff1681526020018273ffffffffffffffffffffffffffffffffffffffff16815260200134815250600360008201518160000160006101000a81548173ffffffffffffffffffffffffffffffffffffffff021916908373ffffffffffffffffffffffffffffffffffffffff16021790555060208201518160010160006101000a81548173ffffffffffffffffffffffffffffffffffffffff021916908373ffffffffffffffffffffffffffffffffffffffff16021790555060408201518160020160006101000a81548173ffffffffffffffffffffffffffffffffffffffff021916908373ffffffffffffffffffffffffffffffffffffffff16021790555060608201518160030155905050600360026000600160008154809291906102549061085e565b9190505581526020019081526020016000206000820160009054906101000a900473ffffffffffffffffffffffffffffffffffffffff168160000160006101000a81548173ffffffffffffffffffffffffffffffffffffffff021916908373ffffffffffffffffffffffffffffffffffffffff1602179055506001820160009054906101000a900473ffffffffffffffffffffffffffffffffffffffff168160010160006101000a81548173ffffffffffffffffffffffffffffffffffffffff021916908373ffffffffffffffffffffffffffffffffffffffff1602179055506002820160009054906101000a900473ffffffffffffffffffffffffffffffffffffffff168160020160006101000a81548173ffffffffffffffffffffffffffffffffffffffff021916908373ffffffffffffffffffffffffffffffffffffffff160217905550600382015481600301559050505050565b60015481565b6002600083815260200190815260200160002060010160009054906101000a900473ffffffffffffffffffffffffffffffffffffffff1673ffffffffffffffffffffffffffffffffffffffff163373ffffffffffffffffffffffffffffffffffffffff161461042057600080fd5b80156104be576002600083815260200190815260200160002060020160009054906101000a900473ffffffffffffffffffffffffffffffffffffffff1673ffffffffffffffffffffffffffffffffffffffff166108fc60026000858152602001908152602001600020600301549081150290604051600060405180830381858888f193505050501580156104b8573d6000803e3d6000fd5b50610552565b6002600083815260200190815260200160002060000160009054906101000a900473ffffffffffffffffffffffffffffffffffffffff1673ffffffffffffffffffffffffffffffffffffffff166108fc60026000858152602001908152602001600020600301549081150290604051600060405180830381858888f19350505050158015610550573d6000803e3d6000fd5b505b5050565b60026020528060005260406000206000915090508060000160009054906101000a900473ffffffffffffffffffffffffffffffffffffffff16908060010160009054906101000a900473ffffffffffffffffffffffffffffffffffffffff16908060020160009054906101000a900473ffffffffffffffffffffffffffffffffffffffff16908060030154905084565b600080fd5b600073ffffffffffffffffffffffffffffffffffffffff82169050919050565b6000610616826105eb565b9050919050565b6106268161060b565b811461063157600080fd5b50565b6000813590506106438161061d565b92915050565b6000610654826105eb565b9050919050565b61066481610649565b811461066f57600080fd5b50565b6000813590506106818161065b565b92915050565b6000806040838503121561069e5761069d6105e6565b5b60006106ac85828601610634565b92505060206106bd85828601610672565b9150509250929050565b6000819050919050565b6106da816106c7565b82525050565b60006020820190506106f560008301846106d1565b92915050565b610704816106c7565b811461070f57600080fd5b50565b600081359050610721816106fb565b92915050565b60008115159050919050565b61073c81610727565b811461074757600080fd5b50565b60008135905061075981610733565b92915050565b60008060408385031215610776576107756105e6565b5b600061078485828601610712565b92505060206107958582860161074a565b9150509250929050565b6000602082840312156107b5576107b46105e6565b5b60006107c384828501610712565b91505092915050565b6107d581610649565b82525050565b6107e48161060b565b82525050565b60006080820190506107ff60008301876107cc565b61080c60208301866107db565b61081960408301856107cc565b61082660608301846106d1565b95945050505050565b7f4e487b7100000000000000000000000000000000000000000000000000000000600052601160045260246000fd5b6000610869826106c7565b91507fffffffffffffffffffffffffffffffffffffffffffffffffffffffffffffffff820361089b5761089a61082f565b5b60018201905091905056fea2646970667358221220b0465879265c37be122c54159823b08c78f43da50b0268f5f34767d45b51c73364736f6c634300080d0033",
  "immutableReferences": {},
  "source": "// SPDX-License-Identifier: GPL-3.0\n\npragma solidity ^0.8.0;\n\ncontract Escrow {\n\n    address owner;\n    uint public txnId;\n\n    struct Transaction {\n        address payable creator;\n        address authorisor;\n        address payable recipient;\n        uint amount;\n    }\n    mapping (uint => Transaction) public escrowed_txn;\n    Transaction transaction;\n\n    constructor() {\n        owner = msg.sender;\n    }\n\n    function createTransaction(address manager, address payable recipient) public payable {\n        transaction = Transaction(payable(msg.sender),\n                                  manager,\n                                  recipient,\n                                  msg.value);\n        escrowed_txn[txnId++] = transaction;\n    }\n\n    function executeTransaction(uint _txnId, bool isValid) public {\n        require(msg.sender == escrowed_txn[_txnId].authorisor);\n        if (isValid) {\n            escrowed_txn[_txnId].recipient.transfer(escrowed_txn[_txnId].amount);\n        }\n        else {\n            escrowed_txn[_txnId].creator.transfer(escrowed_txn[_txnId].amount);\n        }\n    }\n}",
  "sourcePath": "/Users/bberg/truffleFiles/contracts/Escrow.sol",
  "compiler": {
    "name": "solc",
    "version": "0.8.13+commit.abaa5c0e.Emscripten.clang"
  },
  "schemaVersion": "3.4.7",
  "updatedAt": "2022-04-23T13:45:37.531Z",
  "networkType": "ethereum",
  "devdoc": {
    "kind": "dev",
    "methods": {},
    "version": 1
  },
  "userdoc": {
    "kind": "user",
    "methods": {},
    "version": 1
  }
}